:020000040800F2
:10000000000002204576000841760008417600088D
:1000100041760008417600084176000800000000A3
:100020000000000000000000000000004176000811
:10003000417600080000000041760008ED650008E8
:1000400041760008417600084176000841760008B4
:1000500041760008417600084176000841760008A4
:100060004176000841760008417600084176000894
:100070004176000841760008417600084176000884
:100080004176000841760008417600084176000874
:100090004176000841760008417600084176000864
:1000A0004176000841760008417600084176000854
:1000B0004176000841760008417600084176000844
:1000C0004176000841760008417600084176000834
:1000D0004176000841760008417600084176000824
:1000E0004176000841760008417600084176000814
:1000F0004176000841760008417600084176000804
:1001000041760008417600084176000841760008F3
:1001100041760008417600084176000841760008E3
:1001200041760008417600084176000841760008D3
:1001300041760008417600084176000841760008C3
:10014000417600084176000841760008FD65000808
:1001500041760008417600084176000841760008A3
:100160004176000841760008417600084176000893
:100170004176000841760008417600080000000042
:080180004176000841760008F9
:1001A000044B05481B1A062B02D9044B03B1184710
:1001B000704700BF4F0A00204C0A002000000000DA
:1001C00005490648091A891001EBD171491002D07E
:1001D000034B03B1184770474C0A00204C0A00201B
:1001E0000000000010B5064C237843B9FFF7D8FF94
:1001F000044B13B10448AFF300800123237010BDFA
:100200004C0A002000000000E8A8000808B5084BD0
:100210001BB108490848AFF300800848036813B9C8
:10022000BDE80840CCE7064B002BF9D09847F7E72C
:1002300000000000500A0020E8A800084C0A002036
:100240000000000070B50F4E0F4D761BB61018BFA2
:10025000002405D0013455F8043B9847A642F9D153
:100260000A4E0B4D761B0AF033FBB61018BF002464
:1002700006D0013455F8043B9847A642F9D170BD29
:1002800070BD00BFE8A80008E8A80008ECA80008B6
:10029000E8A80008024B0146186800F00BB800BF40
:1002A00090010020024B0146186803F07DBA00BFA0
:1002B000900100202DE9F04F01F10B05162D83B0C0
:1002C000064640F29F8035F0070500F1BF80A94245
:1002D00000F2BC8000F08CFBB5F5FC7FC0F0998289
:1002E0006B0A00F0BA80042B00F28781A80900F1A4
:1002F000390E4FEA4E033830C64F07EB8303A3F1A4
:1003000008015C68A14207D1ACE0002A80F2AC8011
:10031000E468A14200F0A680636823F003035A1B3F
:100320000F2AF2DDBB493C6901F1080E744500F06B
:10033000AF81636823F003035A1B0F2A00F39581F2
:10034000002AC1F814E0C1F810E080F29E80B3F5F5
:10035000007F80F06381DB0803F1010C01229B1018
:1003600002FA03F34A6851F83C80C4F8088001EBB4
:10037000CC091A43A9F10803E3604A6041F83C4004
:10038000C8F80C40831001249C40944200F28A80FB
:10039000144206D120F003006400144200F104006E
:1003A000FAD007EBC009CC468046DCF80C108C452F
:1003B00007D16FE1002A80F27D81C9688C4500F089
:1003C00069814B6823F003035A1B0F2AF2DD0C46A8
:1003D000D1F80CC054F8088F4B1945F001054D6059
:1003E00042F00101C8F80CC03046CCF808807B61AF
:1003F0003B61C3F80CE0C3F808E059609A5000F084
:10040000F9FA1FE0102921D800F0F2FA102506238E
:100410000220804F07EB8303A3F108025C6894423B
:1004200000F041816368E168A56823F00303234479
:1004300030465A68E96042F001028D605A6000F06F
:10044000D9FA0834204603B0BDE8F08F00240C230D
:100450002046336003B0BDE8F08F80234FF0400E9C
:100460003F2049E770465DE72344E1685A68A56884
:1004700042F00102E96030468D605A6000F0BAFA3D
:100480000834204603B0BDE8F08F234430465A6854
:1004900042F001025A6000F0ADFA0834204603B081
:1004A000BDE8F08FBC68636823F00308A84504D357
:1004B000C5EB08030F2B00F39080DFF85C91D7F8B1
:1004C0000834D9F80020013304EB080A2A4400F06C
:1004D0005C8102F580520F3222F47F6222F00F021B
:1004E00011463046019200F087FAB0F1FF3F834693
:1004F000019A00F05481824500F2F880D9F8041086
:10050000DA451144C9F8041000F04E81D7F80834D8
:10051000404801331BBFCAEB0B0A5144C0F808B472
:10052000C9F804101BF0070100F01281C1F10803A3
:10053000C1F580519B4408310BEB0203C3F30B035D
:10054000C3EB010A5146304600F056FA431C00F056
:100550003C81CBEB0003534443F00103D9F8041072
:10056000C7F808B05144BC42CBF80430C9F80410B5
:10057000DFF8A4A016D0B8F10F0F40F2F780626840
:10058000A8F10C0323F00703E01802F001024FF07A
:10059000050E1A430F2B6260C0F804E0C0F808E0B3
:1005A00000F21781D9F82C301B4ABC689942D9F85F
:1005B000303088BFD162184A994288BF116362689F
:1005C00022F003029542A2EB050301D80F2B04DCB5
:1005D000304600F00FFA002434E7621943F00103BB
:1005E00045F0010565603046BA60536000F002FADC
:1005F0000834204603B0BDE8F08F142B69D9542B82
:1006000000F29C80280B00F16F0E4FEA4E036E3013
:1006100072E600BFC0050020040F00205A0A042A19
:100620005ED9142A00F2B38002F15C0149005B320A
:1006300007EB810C57F82110DFF8E081ACF1080CD2
:100640008C4500F088804A6822F00302934202D26F
:1006500089688C45F7D1D1F80CC07A68C4F80CC011
:10066000A160CCF80840CC608CE6631942F0010729
:1006700045F00105656030464B610B61C3F80CE045
:10068000C3F808E05F609A50083400F0B3F9D9E687
:100690004A6877E608F1010818F0030F0CF1080C1E
:1006A0007FF483AE30E0DC68A34208BF02303FF441
:1006B00039AEB7E60B440C465A68C96854F8085F6F
:1006C00042F001025A603046E9608D6000F092F914
:1006D000B8E603F15C0E03F15B004FEA4E030BE654
:1006E0009A0902F1390149003832A1E7BC424B4B6B
:1006F0003FF404AF9C68626822F0030262E759F895
:100700000839994540F0838010F0030F00F1FF3065
:10071000F5D17B6823EA04037B6064009C423FF6CA
:10072000C1AE002C3FF4BEAE1C4240467FF439AE51
:1007300064001C4200F10400FAD032E6B3F5AA7F4F
:1007400018D8E80B00F1780E4FEA4E037730D3E566
:100750004FF48051F0E60121D8F80430921001FAEC
:1007600002F21A43C8F80420614677E70123CBF868
:1007700004302DE740F25452934221D8A80C00F1E6
:100780007D0E4FEA4E037C30B6E51032A8E6542ABF
:1007900027D81A0B02F16F0149006E3248E7BC6896
:1007A000626822F003020DE7CAF30B03002B7FF40B
:1007B000ADAE08EB0203BA6843F001035360F1E603
:1007C000FE234FF07F0E7E2096E501234FF0000AB6
:1007D000C4E604F10801304602F0E6FFDAF804103E
:1007E000E0E6B2F5AA7F05D8DA0B02F178014900FC
:1007F00077321DE740F254518A4205D89A0C02F133
:100800007D0149007C3213E7FE217E2210E77B68E0
:1008100083E7E808431C5B00FBE500BFC005002040
:10082000844641EA000313F003036DD1403A41D3FB
:1008300051F8043B40F8043B51F8043B40F8043BBA
:1008400051F8043B40F8043B51F8043B40F8043BAA
:1008500051F8043B40F8043B51F8043B40F8043B9A
:1008600051F8043B40F8043B51F8043B40F8043B8A
:1008700051F8043B40F8043B51F8043B40F8043B7A
:1008800051F8043B40F8043B51F8043B40F8043B6A
:1008900051F8043B40F8043B51F8043B40F8043B5A
:1008A00051F8043B40F8043B51F8043B40F8043B4A
:1008B000403ABDD2303211D351F8043B40F8043BEA
:1008C00051F8043B40F8043B51F8043B40F8043B2A
:1008D00051F8043B40F8043B103AEDD20C3205D3FA
:1008E00051F8043B40F8043B043AF9D2043208D0F2
:1008F000D2071CBF11F8013B00F8013B01D30B8864
:1009000003806046704700BF082A13D38B078DD041
:1009100010F003038AD0C3F10403D21ADB071CBF13
:1009200011F8013B00F8013B80D331F8023B20F87D
:10093000023B7BE7043AD9D3013A11F8013B00F8B6
:10094000013BF9D20B7803704B7843708B7883703E
:100950006046704770B4840746D0541E002A41D0C8
:10096000CDB2034602E0621EE4B3144603F8015B15
:100970009A07F8D1032C2ED9CDB245EA05250F2CC4
:1009800045EA054519D903F110022646103E0F2EFF
:1009900042F8105C42F80C5C42F8085C42F8045CD7
:1009A00002F11002F2D8A4F1100222F00F0204F0BA
:1009B0000F041032032C13440DD91E462246043A6C
:1009C000032A46F8045BFAD8221F22F003020432FD
:1009D000134404F003042CB1C9B21C4403F8011BF6
:1009E000A342FBD170BC704714460346C2E700BF68
:1009F000704700BF704700BF38B5074C002305465D
:100A00000846236001F0D6FC431C00D038BD2368A3
:100A1000002BFBD02B6038BDA01400200CB4F0B527
:100A20009DB022AC029154F8042B069123466FF03E
:100A300000454FF402774FF6FF7602A90194ADF816
:100A4000147004950795ADF8166000F02FF8029B1E
:100A500000221A701DB0BDE8F04002B0704700BF20
:100A60000EB4F0B59CB021AB0F4953F8042B0193A1
:100A700005466FF00044086802954FF402774FF680
:100A8000FF7602A90695ADF8147004940794ADF8AA
:100A9000166000F00BF8029B00221A701CB0BDE833
:100AA000F04003B0704700BF900100202DE9F04FE7
:100AB000C1B08B4609920F93824602F0DDFF0368B6
:100AC0001693184603F08AFEBBF80C3017901D06EB
:100AD00004D5DBF81030002B01F06D8000230DF100
:100AE000C00812932593249319930C93CDF88C800E
:100AF000C14614931593CDF82CA0CDF828B0099CCD
:100B00002378002B00F0EC81252B02D1E8E1252B86
:100B100003D014F8013F002BF9D1099BE51A95B1D8
:100B2000249B259A0999C9F8001001332A44072B00
:100B3000C9F804502592249300F3348309F108097D
:100B40000C9B2B440C932378002B00F09F870023F1
:100B50004FF0FF3B1A4601348DF86F3019461846A6
:100B600007935D4626780134A6F12003582B00F246
:100B7000ED85DFE813F07A04EB05EB05F204EB05F5
:100B8000EB05EB05EB05EB05EB05F8049B03EB052B
:100B900060001904EB0513049D059D059D059D0549
:100BA0009D059D059D059D059D05EB05EB05EB054B
:100BB000EB05EB05EB05EB05EB05EB05EB0503059D
:100BC0008104EB058104EB05EB05EB05EB05B804AF
:100BD000EB05EB053404EB05EB05EB05EB05EB054D
:100BE0007605EB05EB052A05EB05EB05EB05EB05BB
:100BF000EB05EB05EB05EB05EB05EB056105BE042D
:100C0000810481048104EC04BE04EB05EB0559006A
:100C1000EB05FE039E0365005900EB05AC05EB05F3
:100C20005404EB05EB05D203079B43F01003079335
:100C300098E740420F93079B43F00403079391E723
:100C4000302300210E908DF8703007980F9B099487
:100C500078268D4203F10404AB468DF871608DF85F
:100C60006F101B6840F00202C0F2E58520F08002A0
:100C700042F0020207920F94A448002B00F03C813E
:100C8000454603F00F021B09825C05F8012DF8D1DF
:100C9000C5EB08030D930D9B5B45B8BF5B460893FE
:100CA0000023119311B1089B01330893079B13F0A4
:100CB0000203109302D0089B02330893079B13F0A2
:100CC000840740F020810E9B089AC2EB030ABAF118
:100CD000000F40F318818E4B2599249A1393BAF193
:100CE000100F2BDD534618964846BA46A9461024E5
:100CF0000B9D0A9E1F4604E0103F102F00F10800D4
:100D000016DD0132824B24921031072A259180E8AA
:100D10001800F1DD23AA3146284603F08DFD002896
:100D200040F09285103F102F2599249A4046E8DC28
:100D30003B46189E4D46574681469A460132139BC4
:100D400024920AEB0104072A259489E8080400F399
:100D5000A0829DF86F1009F1080971B1249B01333D
:100D600001340DF16F010122072B2594249389E8AA
:100D7000060000F32A8209F10809109B6BB1249B3D
:100D8000013302341CA90222072B2594249389E8FD
:100D9000060000F3248209F10809802F00F01C816D
:100DA0000D9BC3EB0B07002F3DDD102F249BDFF8BD
:100DB00064A12BDD50464A462146A946B2464FF073
:100DC000100B0B9C0A9D064604E0103F102F02F109
:100DD000080215DD01331031072B2591249382E899
:100DE0004008F2DD23AA2946204603F025FD00280D
:100DF00040F0CB81103F102F2599249B4246E9DC1F
:100E00004D46914632460C465646924601333C4486
:100E1000072B25942493C9F800A0C9F8047000F3A7
:100E2000CA8109F10809079BDA0575D4249B0D993D
:100E3000C9F8005001330C44072B2594C9F804105D
:100E4000249300F38E8109F10809079B590734D5D3
:100E50000E9B089A9D1A002D2FDD2D4A249B13927C
:100E6000102D20DD10260B9FDDF828A004E0103D9A
:100E7000102D09F1080916DD0133254A2493103499
:100E8000072B259489E84400F1DD23AA5146384612
:100E900003F0D2FC002840F05E85103D102D259C0B
:100EA000249BC146E8DC0133139A24932C44072B7E
:100EB000259489E8240000F337840C9B0E9A089946
:100EC0008A42ACBF9B185B180C93002C40F05281F7
:100ED000099C002324932378C146002B7FF414AE91
:100EE000099C30E6BBF1000F8DF86F30C0F2BD8574
:100EF000079B23F080030793BBF1000F00F00C84E5
:100F000000210B46BCE6259C27E700BF90A80008FF
:100F1000D0A40008E0A40008652E40F3A180149836
:100F200015990022002305F0AFFA002800F0668131
:100F3000249BB04AC9F80020013301340122072B59
:100F400025942493C9F8042000F3168409F10809B4
:100F50001D9B129A934203DB079BDB077FF575AF5E
:100F6000249B1799169AC9F8002001330C44072BCB
:100F70002594C9F80410249300F3118609F1080997
:100F8000129B5D1E002D7FF760AF102D249BDFF8B4
:100F900068A240F35C8410260B9FDDF828B005E0C2
:100FA00009F10809103D102D40F35184013310342C
:100FB000072B25942493C9F800A0C9F80460EFDD3D
:100FC00023AA5946384603F037FC002840F0DE805B
:100FD000259C249BC146E5E70E9B089A9F1A002F8B
:100FE0007FF7DEAE102F249BDFF80CA22ADD5046DF
:100FF0004A462146A946B2460B9C0A9D064604E095
:10100000103F102F02F1080216DD013310311020BD
:10101000072B2591249316605060F1DD23AA294601
:10102000204603F009FC002840F0AF80103F102F4D
:101030002599249B4246E8DC4D46914632460C46B3
:101040005646924601333C44072B25942493C9F815
:1010500000A0C9F8047000F3CB8409F108099FE6E9
:10106000129B249E012B40F3788401360134012326
:10107000072E25942496C9F80050C9F8043000F3CF
:101080009D8409F10809179A169BC9F800300136AA
:101090001444072E25942496C9F8042000F39B8459
:1010A00009F10809002314981599002205F0ECF9BC
:1010B000129B00283AD05D1E002D45DD102DDFF873
:1010C00038A11FDD1027DDF82CB004E0103D102DF5
:1010D00009F1080916DD01361034072E25942496EF
:1010E000C9F800A0C9F80470F0DD23AA0A9958468F
:1010F00003F0A2FB002845D1103D102D259C249E15
:10110000C146E8DC01362C44072E25942496C9F804
:1011100000A0C9F8045015DD23AA0A990B9803F022
:101120008BFB78BB259C249EC1460DE0013B01361C
:1011300001351C44072E24962594C9F80050C9F89F
:101140000430E9DC09F10809199AC9F804200136CC
:1011500014441FAB072E25942496C9F800307FF75E
:1011600072AE23AA0A990B9803F066FB50B9259C2E
:10117000C1466AE623AA0A990B9803F05DFB002892
:101180003FF4A6AEDDF828B000E0AB46BBF80C306B
:1011900013F0400F0C9B18BF4FF0FF33184641B0BF
:1011A000BDE8F08F23AA0A990B9803F045FB0028AD
:1011B000E8D1C146C4E423AA0A990B9803F03CFB8A
:1011C0000028DFD1259CC1462DE623AA0A990B9859
:1011D00003F032FB0028D5D1259CC146CDE523AADA
:1011E0000A990B9803F028FB0028CBD1259CC14617
:1011F000D3E500BFACA80008E0A400081D9E002EA7
:1012000040F3C682119B129A9342A8BF1346002B4B
:101210001E460DDD249BC9F8005001333444072BD2
:101220002594C9F80460249300F3078509F108099F
:10123000119B002EA8BF9B1B002B1E4640F32A8348
:10124000102E249BDFF8ECA340F301845146224684
:10125000AA461027DDF82CB00A9C0D4605E009F1DE
:101260000809103E102E40F3EE8301331032072B95
:101270002592249389E8A000F1DD23AA214658464F
:1012800003F0DAFA002840F0D584259A249BC14661
:10129000E7E723AA0A990B9803F0CEFA00287FF417
:1012A00071AF9DF86F10259CC14656E501222B2198
:1012B00058E40E90AB460994002A40F054860798F3
:1012C00010F0100100F09A8000210F9B8DF86F1034
:1012D0008B4503F104021B68C0F2AF8320F080004D
:1012E00007900F92002B00F02A82454603F0070278
:1012F0003032DB0805F8012DF8D1079BD8077FF5C0
:10130000C7AC302A3FF4C4AC30226B1E05F8012C68
:10131000C3EB08020D921D46BDE40E90AB46099446
:10132000002A40F00D86079BBD48DC0640F158813D
:101330000F9A079C136814F0010102F104020F9246
:1013400000F05D81002B3FF4CDAD0021079C8DF8AE
:10135000716030228B458DF870208DF86F1044F04D
:101360000202C0F2BD8424F0800242F00202079221
:1013700086E40994002A40F0E785079BDE0600F129
:101380007782079B5D0640F173820F9A13680432DF
:101390000F92BDF830201A80FFF7B1BB079B43F0D6
:1013A00080030793FFF7DEBB26782A2E04F10104A1
:1013B00000F0A285A6F13003092B4FF000053FF69F
:1013C000D3AB14F8016B05EB850503EB4505A6F1DE
:1013D0003003092BF5D945EAE575FFF7C5BB0E903B
:1013E000AB460994002A40F0B785079B43F01003F1
:1013F0000793079810F010017FF466AF079C14F074
:10140000400000F0C8820F9B8DF86F10BBF1000FF9
:1014100003F104021B88C0F2108320465EE70E90A1
:10142000AB460994002A40F09385079810F010020B
:1014300000F0268100210F9B8DF86F108B4503F182
:1014400004021B68C0F20F8220F0800007900F9208
:10145000002B69D11946BBF1000F00F05E8100231B
:1014600040AD303305F8413D12E400297FF47AABFA
:1014700001222021FFF776BB0E90AB460994002A8B
:1014800040F04D850F9F073727F0070303F108024F
:101490000F921A6814925B681593149D159C284648
:1014A000214602F0B9FF012840F0AE8228462146CD
:1014B0000022002304F0F2FF002840F025849DF86C
:1014C0006F100798574D584B03224FF0000B20F038
:1014D000800008920790472ED8BF1D460D92CDF888
:1014E00044B0FFF7DFBB079B43F008030793FFF708
:1014F00039BB0E90AB460994002A40F03C85079B0F
:10150000DC0648D50F9A13680432002B0F924FDB8C
:10151000BBF1000F9DF86F10C0F2A681079A22F070
:1015200080020792002B96D0092B99D945463F4A55
:10153000A2FB0302D20802EB8200A3EB400330338C
:1015400005F8013D1346002AF1D1FFF7A1BB079B27
:1015500043F040030793FFF705BB079B43F00103EC
:101560000793FFF7FFBA0F9E30683346002803F158
:101570000403FFF65EAB0F93FFF7F4BA0E90AB4691
:101580000994002A40F0F384079B43F0100307936B
:10159000079BDC06B6D40F9A079B13F0400F134647
:1015A00014BFB2F900301B680432002B0F92AFDA7F
:1015B0002D21BBF1000FC3F100038DF86F10B3DBD9
:1015C000079A22F080020792AEE70E90AB4609948C
:1015D000002A40F0D884079B1548DC063FF5A8AEEA
:1015E0000F9A079B079C13F0400F134614BF1388F4
:1015F0001B68043214F001010F927FF4A3AEBBF11B
:10160000000F8DF86F10C0F2348224F08002079230
:10161000002B7FF435ABBBF1000F7FF471AC7BE0A6
:1016200090A8000870A800086CA80008CDCCCCCC0D
:101630007CA80008E0A400080E900F9809940268A6
:101640008DF898200023024619468DF86F30043239
:10165000012308938B4611910F920D9326ADFFF74E
:1016600025BB0E90AB460994002A40F08884079B66
:1016700043F010030793079810F010027FF4DAAEDE
:10168000079810F0400100F07A810F9B8DF86F20D1
:10169000BBF1000F03F104011B88C0F2148320F09A
:1016A000800007900F91002B3FF4D4AE11463BE72A
:1016B000A6F13003002014F8016B00EB800003EB6F
:1016C0004000A6F13003092BF5D9FFF74DBA0F9A68
:1016D0000994AB4615680E9000248DF86F40171DD5
:1016E000002D00F0D382BBF1000FC0F29C825A465D
:1016F0002146284602F0D0F9002800F01B83431B46
:101700000D93A34623EAE3730F970893CDF844B0F3
:101710009DF86F10FFF7C6BA59464FF0000BCDF891
:1017200034B04546FFF7B7BA23AA0A990B9803F0DD
:1017300083F800287FF426AD259CFFF7BEBBBBF1E4
:10174000000F00F0E88200210B46CEE50E900994D0
:10175000002A40F02184002E00F09881002301220D
:10176000194608928DF898608DF86F309B4611935A
:101770000D9226ADFFF79ABA23AA0A990B9803F0A7
:101780005BF800287FF4FEAC259CC146FFF7E0BB68
:10179000249BB94AC9F80020013301340122072BE8
:1017A00025942493C9F8042000F3158209F108094F
:1017B0002EB9129B1BB9079BDF077FF546AB249B15
:1017C0001799169AC9F8002001330C44072B259469
:1017D000C9F80410249300F3DF8209F10809764266
:1017E000002E40F31282102EDFF89CA240F33582C7
:1017F00051462246AA461027DDF82CB00A9C0D4619
:1018000005E009F10809103E102E40F32282013351
:101810001032072B2592249389E8A000F1DD23AA3A
:101820002146584603F008F8002840F00382259A24
:10183000249BC146E7E7914807920F94002B00F0E4
:1018400014810021FFF71CBAB3469FE4BA46013366
:101850002C44072B25942493C9F800A0C9F8045000
:101860007FF7F1AA7DE40F92002B7FF45DAEF7E5E0
:101870000F9A136804320F920C9A1A60FFF73FB95F
:1018800023AA0A990B9802F0D7FF00287FF47AACBC
:10189000259CC146119A1D9B2A441746129A9342D1
:1018A00048DB079AD60745D412990D44ED1BCB1A95
:1018B0009D42A8BF1D46002D2E460DDD249AC9F875
:1018C000007001322C44072A2594C9F80450249250
:1018D00000F3EB8109F10809002EACBF9D1B1D46EA
:1018E000002D7FF7B2AA102D249BDFF89CA1AEDD5E
:1018F00057461026DDF828B0DDF82CA004E009F1E9
:101900000809103D102DA1DD01331034072B25945B
:101910002493C9F80070C9F80460F0DD23AA594681
:10192000504602F089FF00287FF430AC259C249BB0
:10193000C146E6E7249A17981699C9F800100132B3
:101940000444072A2594C9F80400249200F39281E4
:1019500009F10809A8E7D34618E4079BD8073FF523
:1019600084AB013601340123072E25942496C9F84F
:101970000050C9F804307FF7E5ABFFF7CDBB0F9BF4
:101980008DF86F10BBF1000F03F104021B68FFF626
:101990006AAF079858E50F9B8DF86F00BBF1000FF9
:1019A00003F104021B6848DB07990F9221F08001C4
:1019B0000791002B3FF4C3AE014696E423AA0A998F
:1019C0000B9802F039FF00287FF4DCAB259C249EA5
:1019D000C146FFF758BB23AA0A990B9802F02CFFC7
:1019E00000287FF4CFAB259C249EC146FFF75ABB4D
:1019F00023AA0A990B9802F01FFF00287FF4C2ABBC
:101A0000259CC146FFF7CCB91498159902F004FD46
:101A100000284AD183460798194D1A4B9DF86F103C
:101A2000CDF844B0032220F0800008920790472EA2
:101A3000D8BF1D460D92FFF735B9002B0F920CBF92
:101A40001946002151E414462A4655469246013370
:101A50003444072B25942493C9F800A0C9F80460E6
:101A60003FF70EAF09F1080914E719460023FFF705
:101A700007B90F9CE1E600BFACA8000890A80008D9
:101A800078A8000874A80008E0A40008259BDDF8E9
:101A90002CA0DDF828B0002B3FF478AB504623AAE9
:101AA000594602F0C9FEFFF771BB26F02003BBF1D7
:101AB000FF3F0D9300F09B80472B04D1BBF1000F3B
:101AC00008BF4FF0010B079B43F480731093159BE5
:101AD000B3F1000A149B0893BBBF534603F1004ABD
:101AE00000232D23662E139300F06381462E00F011
:101AF00086810D9B089A452B21A81EA90CBF0BF1CE
:101B000001075F46049003911DA8022102905346ED
:101B1000019700910B9800F0BFFD672E054600F07D
:101B2000D980472E00F0FF81EC1908985146002219
:101B3000002304F0A9FC002840F0EB80219B9C428C
:101B400006D930215A1C21921970219B9C42F9D848
:101B50005B1B12930D9B472B00F0CF80652E40F34B
:101B6000ED811D9B1193662E00F05F81119A1299F1
:101B70008A42C0F23781079BDF0700F19B8122EA8E
:101B8000E2730D926726139A002A40F0AC80089306
:101B9000109B079393469DF86F10FFF783B823AA15
:101BA0000A990B9802F048FE00287FF4EBAA259CC6
:101BB000C146FFF7E5B940215046FEF77BFBCBF865
:101BC0000000CBF81000002800F0EA814023CBF899
:101BD0001430FEF783BF23AA0A990B9802F02CFE5B
:101BE00000287FF4CFAA1D9E259CC146E0E54FF05A
:101BF000060B68E723AA0A990B9802F01DFE00283D
:101C00007FF4C0AA259C249BC1461299C9F80050B4
:101C100001330C44072B25942493C9F804107FF753
:101C200012A9FFF79EBA284602F0D8FDA346034644
:101C30000D9067E5A346FFF7A9BA23AA0A990B9866
:101C400002F0FAFD00287FF49DAA259CC146FFF70B
:101C5000EFBA14462A465546924601333444072BC0
:101C600025942493C9F800A0C9F80460C2DC09F1E6
:101C70000809CAE723AA0A990B9802F0DDFD00289B
:101C80007FF480AA1D9B259CC1460DE65B46062B72
:101C900028BF06230D9323EAE373AB46294611952B
:101CA0000F970893BA4DFEF7FDBF23AA0A990B9828
:101CB00002F0C2FD00287FF465AA1D9B129A259CA4
:101CC000D31AC14608E60F911146002B7FF42CACC5
:101CD000FFF7C6BB079BDA073FF526AF219B37E727
:101CE0000792FEF7CDBF2D210893109B07938DF827
:101CF0006F104FF0000BFEF7D6BF1D9BD91C25DBE4
:101D00009B4523DB119331E72D218DF86F10FFF7F1
:101D1000D8BB23461CE7079BDB07594605D540ADDA
:101D2000302305F8413DFEF7B3BFCDF834B045464A
:101D3000FEF7B1BF2BEAEB73CDF834B008938346BE
:101D40000F9711909DF86F10FEF7ACBF023E013B5C
:101D5000002B1D93BABF5B422D222B22092B8DF83D
:101D60007C608DF87D206DDC303330228DF87F3043
:101D70008DF87E2020AB1FAA9B1A129A1993012A74
:101D800013440D9340F3AE800D9B002201330D935D
:101D9000119223EAE373F6E623AA0A990B9802F05C
:101DA0004BFD00287FF4EEA91D9E259C249BC14677
:101DB00015E521A81EA9049003911DA803210290F6
:101DC000089ACDF804B0534600910B9800F064FCDB
:101DD0005F46054600EB0B042B78302B5DD01D9F32
:101DE0003C44A2E6119B129A002BD4BFC3F102031C
:101DF000012313440D93672623EAE373C3E621A866
:101E00001EA9049003911DA803210290089ACDF801
:101E100004B0534600910B9800F03EFC5F46054627
:101E2000462E05EB0704D7D07FE6002B51DDBBF132
:101E3000000F46D1079AD20743D41A460D9223EADF
:101E4000E373A0E60DF18B042046524A82FB032186
:101E5000DA17C2EBA10202EB8201A3EB410303F10B
:101E60003001092A134600F8011DEEDC024630332A
:101E7000DBB202F8013D944272D90DF17E010246B7
:101E800001E012F8013B01F8013B9442F9D1631CD7
:101E90001B1A0DF17E0213446DE70898514600228B
:101EA000002304F0F1FA002899D1C7F101071D972A
:101EB0003C443AE6119B01330D93672623EAE37312
:101EC00061E6119B0BF101073B440D9323EAE37399
:101ED00059E6BBF1000F1CD1079BDB0719D4012386
:101EE0000D9350E6079B13F001037FF44DAF119360
:101EF0000D9B23EAE37346E60F9E35683346002DBB
:101F000003F10403BFF637AB0F934FF0FF35FEF735
:101F100029BE0BF102030D9323EAE37333E68DF838
:101F20006F10FFF7AFBA079BD8073FF579AF219B3A
:101F30005B1B12930D9B472B3FF4DFAE1D9B06E707
:101F40008DF86F10FFF7EFB98DF86F10FFF715BA26
:101F50008DF86F10FFF769BA8DF86F10FFF745BA6B
:101F60000DF17E0307E78DF86F10FFF7A8B98DF824
:101F70006F10FFF709BB8DF86F10FFF7C0BA8DF82F
:101F80006F10FFF774BB8DF86F10FFF724BB00BF15
:101F9000A4A80008676666668DF86F10FFF7DBBBC4
:101FA0000C23CAF800304FF0FF30FFF7F8B800BF3D
:101FB0000D4B1B6810B504460BB19A6B4AB16CB15E
:101FC000012C0ED0022C06BF084B9868A4F120000B
:101FD00010BD184601F07AFB002CF1D1034B1868B4
:101FE00010BD024B586810BD90010020380F002032
:101FF00070B501F07DFA13240546002620463146CF
:10200000ABBE04464FF0FF302C6070BD2DE9F047A9
:1020100084B0DFF86890CDF804904FF003080024F6
:10202000CDF80C800126029401AF30463946ABBE94
:102030008246114DCDF804900423CDF80C80C5F8EC
:1020400000A0029330463946ABBE06464FF0FF3043
:10205000AE606E60234605F10C0242F83300013396
:10206000142B0549F9D10A684E610023CA600B613F
:102070008B6104B0BDE8F087380F0020B0A80008DD
:1020800030B585B00D461446FFF792FF02950394D4
:102090000190062401AD20462946ABBE04462046E9
:1020A00005B030BD2DE9F8431B4D894617468046E3
:1020B000FFF77EFF002355F83320184C90424FEA7B
:1020C000C30603F1010319D0142BF4D1494640464D
:1020D0003A46FFF7D5FF002802DB381ABDE8F8833F
:1020E00001F006FA13240546002620463146ABBE11
:1020F00004464FF0FF302C60BDE8F8834946404667
:102100003A46FFF7BDFF0028EADB3444381A23695A
:1021100003442361BDE8F883440F0020380F0020FA
:102120002DE9F043264F83B00E46914680460024A9
:10213000FFF73EFF07F10C0151F83430204A984276
:102140004FEAC40526D00134142CF5D1B9F1010FA2
:1021500010D0B9F1020F12D0E9464046FFF728FF30
:102160000A258DE8410028464946ABBE0546142C99
:102170001FD0BDB14FF0FF3003B0BDE8F0830DF1CB
:1021800008090C2549F8080D28464946ABBE054606
:102190002E44E2E7B9F1010FDBD11544E9462B6982
:1021A0001E44DAE707EBC4043046266103B0BDE8FD
:1021B000F083002DDED1304603B0BDE8F08300BFD0
:1021C000380F002008B5FFF7ABFF431C00D008BD57
:1021D000BDE808400CE700BF30B585B00D46144699
:1021E000FFF7E6FE029503940190052401AD204619
:1021F0002946ABBE0446204605B030BDF8B51546AD
:102200000F460646FFF7D4FE154A002452F8343034
:10221000984202D00134142CF8D1394630462A466F
:10222000FFF7DAFF431C0DD085420BD0142C07D0EA
:102230000C4B03EBC404281A236903442361F8BD43
:10224000281AF8BD01F054F913240546002620464B
:102250003146ABBE04464FF0FF302C60F8BD00BFE6
:10226000440F0020380F0020F0B5244C85B0002327
:1022700054F8332001324FEAC30503F1010305D0BE
:10228000142BF5D14FF0FF3005B0F0BD8B07C1F333
:10229000004423D48F0548BF44F004044E0548BFD2
:1022A00044F004040A0744BF24F0040444F0080482
:1022B000019002F093FA02940390012401AE2046AB
:1022C0003146ABBE0446002C0BDB0D4B1D4404F124
:1022D00020000023EC602B6105B0F0BD44F0020447
:1022E000D8E701F005F913250646002728463946A8
:1022F000ABBE05462046356005B0F0BD440F00205A
:10230000380F00200EB400B50199FFF7ADFF431C54
:1023100003D05DF804EB03B07047FFF769FE5DF88A
:1023200004EB03B0704700BF30B583B0FFF740FE49
:102330000D4C0190002354F833200C4D90424FEA8D
:10234000C30103F101030AD0142BF4D1022401AD1F
:1023500020462946ABBE0446204603B030BD294482
:102360004FF0FF33CB60F1E7440F0020380F00201F
:1023700008B5FFF7D9FF431C00D008BDBDE80840F1
:1023800036E600BF062930B50CBF044D044D1824B5
:1023900020462946ABBE0446204630BD230002003D
:1023A0002600020008B54FF0FF31FFF7EBFF08BD34
:1023B000012070470C4A08B5D2F8AC307BB1184404
:1023C0006946884203D8C2F8AC00184608BD01F03F
:1023D0008FF80C2303604FF0FF33184608BD034B02
:1023E000C2F8AC30EBE700BF380F0020A414002087
:1023F00010B508460C463C220021FEF7ABFA4FF41C
:1024000000524FF480636260E362002010BD00BFA1
:1024100038B50C460021FFF775FF051E0FDB0021C4
:1024200020463C22FEF796FA4FF401424FF48063B7
:1024300028466260E362FFF777FF002038BD4FF067
:10244000FF3038BD4FF0FF30704700BF30B583B06C
:102450000E24009002F0C2F901906D4620462946F4
:10246000ABBE0446631C06D02046003018BF0120D6
:10247000404203B030BDFFF7BBFDF6E7704700BF39
:10248000F0B50C4640B105461126002730463946C6
:10249000ABBE064685E8C00014B10023236063602C
:1024A0000020F0BD70B504461025002628463146B0
:1024B000ABBE05461CB184E86000A660E660284615
:1024C00070BD00BF30B583B0FFF772FD02AD0924C7
:1024D00045F8040D20462946ABBE0446631C02D0D5
:1024E000204603B030BDFFF783FD03B030BD00BF11
:1024F000D8B130B583B01224009002F06FF901908A
:102500006D4620462946ABBE0446631C20460ED0CD
:10251000FF2808D838B103465B00C3F3072201D077
:102520008242F9D1184603B030BD01207047FFF751
:102530005FFDEDE730B585B00C46009002F04EF936
:1025400001902046029402F049F90F2403906D4651
:1025500020462946ABBE0446631C06D02046003008
:1025600018BF0120404205B030BDFFF741FDF6E73E
:1025700002690B69934200F38D802DE9F04F03F15E
:10258000FF3801F1140700F1140B57F828205BF80D
:1025900028304FEA880483B00132B3FBF2F90BEB29
:1025A0000403009407EB040A0193B9F1000F39D03A
:1025B0000025BC46DE462B465CF8046BDEF80020A6
:1025C000B4B209FB0455360C2C0C09FB0644ADB221
:1025D0005B1BA6B213FA82F3C6EB124606EB234648
:1025E0009BB243EA0643E2454EF8043B4FEA1445EA
:1025F0004FEA2643E0D2009B5BF8033093B9019C7D
:10260000231F9B450CD254F8043C4BB9A4F108039A
:1026100002E01A68043B1AB99B4508F1FF38F8D369
:10262000C0F81080044601F0CFFC00282EDB09F131
:1026300001095D46002357F8041B28688AB29A1ADC
:10264000090C12FA80F2C1EB104303EB224391B262
:1026500041EA0341BA4545F8041B4FEA2343EAD255
:102660005BF828200BEB880382B91A1F93450BD225
:1026700053F8042C42B9083B02E01A68043B1AB92B
:102680009B4508F1FF38F8D3C4F81080484603B0E2
:10269000BDE8F08F002070472DE9F04F016C97B036
:1026A0008146239C92469B4649B1426C4A60012375
:1026B00093408B6001F05AFA0023C9F84030BBF117
:1026C000000FD84633DB00232360A54B1A4608EAE7
:1026D0000303934214D0504659460022002303F0CE
:1026E000D3FE054648B3229A01231360249B002B96
:1026F00000F0C5809B481860013817B0BDE8F08F26
:10270000229A42F20F731360BAF1000F00F0A28018
:102710009548249B002BF0D0C378002B00F0B180AB
:1027200000F10803249A136017B0BDE8F08F01236D
:102730002BF000482360C346C7E714AA15AB0192EB
:10274000009352465B46484601F074FD5FEA185418
:10275000089040F08880149D159C2C4404F232436C
:10276000202B40F39182C3F1400304F2124008FA97
:1027700003F82AFA00F040EA080003F0A7FB01235F
:10278000013CA1F1F87110930022784B03F060FA3C
:102790006DA3D3E9002303F00FFC6DA3D3E900235D
:1027A00003F058FA064620460F4603F09FFB6AA343
:1027B000D3E9002303F000FC02460B4630463946BD
:1027C00003F048FA06460F4603F090FE00220490FC
:1027D00000233046394603F061FE002840F0308285
:1027E000049E162E00F22982614B03EBC603D3E947
:1027F000000152465B4603F06FFE002800F049825C
:10280000731E049300230C932C1B631E029300F190
:10281000328200230593049B002BC0F22382029A8C
:102820000B9311461944002302910A93209B092B14
:1028300029D8052B40F35886043B20930025209B84
:10284000023B032B00F23586DFE813F02C0328024D
:1028500037035904444B474AC8F31300002814BFF8
:102860001846104655E7CBF3130343F07F511095FC
:102870005046A4F2FF3441F44011149D84E73E48D1
:102880003BE7C31C4EE70021C9F84410484620919D
:1028900001F046F94FF0FF330693209A0D93012380
:1028A00007902192C9F840000993159B002BC0F2B4
:1028B000D180049A0E2A00F3CD802D4B03EBC20386
:1028C000D3E90034CDE90234219B002BC0F2008310
:1028D00056465F4650465946DDE902AB52465B46D6
:1028E00003F094FC03F002FE044603F0FFFA5246A4
:1028F0005B4603F061FB0B4602463946304603F067
:10290000A7F9079D04F130032B70069B012B0646A7
:102910000F4605F1010562D00022184B03F04CFB75
:102920000022002306460F4603F0AEFD00287ED1AC
:10293000CDF81490DDF818A0DDF81CB0DDE90289AF
:1029400029E000BFAFF3008061436F63A787D23FE8
:10295000B3C8608B288AC63FFB799F501344D33F8E
:102960000000F07FADA80008C0A800080000F83FF4
:1029700000A50008B4A80008ACA800080000244086
:1029800003F01AFB0022002306460F4603F07CFDED
:10299000002840F0B78342464B463046394603F0A4
:1029A00035FC03F0A3FD044603F0A0FA42464B4673
:1029B00003F002FB02460B463046394603F048F965
:1029C00004F1300E05F801EBCBEB050ED6450646BB
:1029D0000F464FF00002B04BD2D1DDF814903246D2
:1029E0003B463046394603F035F906460F46024667
:1029F0000B46DDE9020103F051FD40B932463B468A
:102A0000DDE9020103F040FD88B1E3070FD515F8B9
:102A1000014C079A6B1E04E09A4200F02C8413F8D4
:102A2000014D392C03F10105F6D001341C700899D1
:102A3000484601F09BF80022049B2A70229A013339
:102A40001360249B002B00F0A78307981D6017B02C
:102A5000BDE8F08F099A002A00F01281209A012A1D
:102A600040F35882069B0A9A5F1EBA42C0F29783CF
:102A7000D71B069B002BC0F28A84059D069B059AF6
:102A80001A440592029A01211A444846029201F022
:102A900051F9064665B1029900290B4608DDA942A5
:102AA000059AA8BF2B46D21AED1ACB1A05920293AB
:102AB0000A9B002B40F3FC82099A002A00F0018255
:102AC000002F00F0FE8131463A46484601F0D4F925
:102AD000DDF82080014642460646484601F034F9BA
:102AE00041460446484601F041F80A9BDB1B0A9325
:102AF00040F0E6810121484601F01CF90B9B80461D
:102B0000002B00F0198201461A46484601F0B4F93C
:102B1000209B012B804640F3F8820027D8F8103024
:102B200008EB8303186901F0B7F8C0F12000029A9E
:102B3000104410F01F0000F0F681C0F12003042BB8
:102B400040F3CA84059BC0F11C000344059313465F
:102B5000034405440293059B002B05DD21461A46DC
:102B6000484601F0D9F90446029B002B05DD414699
:102B70001A46484601F0D0F980460C9B002B40F0E5
:102B80007C82069B002B40F39582099B002B40F032
:102B9000F581DDF81CB0069F5D4602E000F0F0FF15
:102BA000044641462046FFF7E3FC00F1300A05F8F1
:102BB00001ABCBEB0503BB424FF00A024FF0000321
:102BC00021464846EADB079B069A012AACBF9B18C0
:102BD00001331D464FF0000B21460122484601F00B
:102BE0009BF94146089001F0EFF9002840F30D836E
:102BF00015F8012C07996B1E04E08B4200F07882D7
:102C000013F8012D392A03F10105F6D001321A70AB
:102C10004146484600F0AAFF002E3FF408AFBBF142
:102C2000000F05D0B34503D05946484600F09EFF3B
:102C30003146484600F09AFFF9E601230C93E3E59C
:102C4000DDF81080404603F051F902460B4630464D
:102C5000394603F019FC00287FF4C2AD08F1FF33B8
:102C60000493BDE5059A049BD21A5B420A930023A4
:102C700005920B93DAE55B42059300230293CAE5C4
:102C80000A9F059D099E05E7C3F120080AFA08F08E
:102C900073E50C90B8E500BF0000244000230993C1
:102CA000049B219A13440D930133002B069340F3A8
:102CB0008382069C26460021172EC9F844100BD9A2
:102CC000012204235B0003F11400B042114602F11B
:102CD0000102F7D9C9F84410484600F021FF0E2C34
:102CE0000790C9F840003FF6E0AD002D3FF4DDADA0
:102CF00004995746D8460029CDE90E7840F39282D0
:102D0000914B01F00F020E1103EBC203F006D3E961
:102D1000004540F14C828D4B50465946D3E908237B
:102D200003F074FA06F00F0682468B464FF0030854
:102D300086B1864FF10709D520462946D7E90023F9
:102D400003F03AF908F1010804460D46761007F140
:102D50000807EFD122462B465046594603F056FA53
:102D600006460F460C9B43B10022794B304639464C
:102D700003F094FB002840F02083404603F0B6F8AF
:102D800032463B4603F018F9724B002202F062FF14
:102D9000069B0446A1F15075002B00F0DF81049BD7
:102DA000DDF818801193099B002B00F09782664B89
:102DB000694903EBC80353E90223002003F026FA14
:102DC00022462B4602F044FF82468B463046394667
:102DD00003F08CFB044603F089F802460B463046AC
:102DE000394602F035FF3034079DE4B206460F46FF
:102DF0002C7002460B4650465946013503F06CFBD9
:102E000000284CD132463B460020514902F020FFB9
:102E100002460B465046594603F05EFB002840F040
:102E20000D83B8F1010F40F3B381079B98440DE087
:102E30000020474902F00CFF52465B4603F02EFB90
:102E4000002840F0FB82454500F0A28150465946DB
:102E50000022424B03F0B0F80022404B82468B46E2
:102E60003046394603F0A8F80F46064603F03EFB0D
:102E7000044603F03BF802460B463046394602F062
:102E8000E7FE3034E4B252465B4605F8014B064695
:102E90000F4603F003FB32463B460028C8D0119B87
:102EA0000493C4E500230993219B002B40F38981FF
:102EB0001E461C460D930693FDE601230993F3E796
:102EC00008940A9A0899484600F0D6FF044611E68D
:102ED000069B002B3FF7FCAC40F0DA820022204B2F
:102EE000DDE9020103F068F852465B4603F0EAFAB6
:102EF000DDF818804646002800F0F280219B079DEF
:102F0000DB4304934146484600F030FE002E3FF478
:102F10008EAD8DE6109A002A00F0418203F2334311
:102F20000A9F059DABE51C20059B03440593029B6E
:102F30000344054402930EE6209B012B40F382825A
:102F40000B9F0120F3E500BF00A50008F0A50008D5
:102F50000000F03F00001C400000E03F0000244063
:102F600000001440314600230A22484600F008FEC3
:102F70000D9B002B064640F397820693002D05DD3E
:102F800031462A46484600F0C7FF0646002F40F06B
:102F90007C810596069B079ADDF814B0013BD31897
:102FA00008930AF0010309931746C246514620468A
:102FB000FFF7DEFA31460546204601F005F85A468D
:102FC00002905146484601F01FF8C268804605F15C
:102FD0003003002A49D101462046069300F0F4FF51
:102FE00041460590484600F0C1FD059A069B2AB966
:102FF000209919B90999002900F03682029900290F
:10300000C0F2E48005D1209919B90999002900F08E
:10301000DD80002A00F34D81089A3B7007F101081A
:103020009742454600F05481214600230A22484633
:1030300000F0A6FD5E45044631464FF000034FF018
:103040000A0248460BD000F09BFD59460646002375
:103050000A22484600F094FD47468346A6E700F062
:103060008FFD474606468346A0E70146484605933E
:1030700000F07CFD0122059BC0E74146204600F0A0
:10308000A3FF0028BFF67DAD2146049C0023013C30
:103090000A224846049400F073FD099B0446002B65
:1030A0007FF460AF0D9B002B40F3F681069370E533
:1030B000089C1FE5209B022B7FF767AD069B002B2A
:1030C00040F0798141460522484600F059FD01460D
:1030D0008046204600F078FF002808947FF70EAF66
:1030E000049A07993123013204920B704D1C09E7B1
:1030F000049A01320492079A3123137088E5012360
:103100000993CDE5DDF8149091E4BAF1000F7FF456
:1031100004ADCBF31303002B40F03F812BF00047AD
:103120003F0D3F0537B1059B01330593029B0133EA
:10313000029301270B9B0120002B3FF4F8ACEDE438
:10314000404602F0D3FE32463B4602F035FF0022F5
:10315000BF4B02F07FFD0446A1F150753046394661
:103160000022BC4B02F074FD22462B4606460F4659
:1031700003F0B2F98046002840F00581224605F1AF
:1031800000433046394603F089F908B14646B5E6B2
:10319000DDE90EABFFF789BB0798FFF7AEBA0A9BD4
:1031A0000B9A0A97FB1A1A440B92002761E4DDE997
:1031B0000EAB4FF00208BBE51C460021C9F84410D5
:1031C0008AE5012421940D940694F6E7002AD0465E
:1031D000CDF814B09A4611DD21460122484600F090
:1031E0009BFE4146044600F0EFFE002840F3498173
:1031F000BAF1390F00F0068105F1310AB34687F8BC
:1032000000A07D1C059E089402E504D11AF0010F70
:1032100001D0EDE4154615F8013C302B05F1FF32E5
:10322000F8D0F5E4049B5C42002C00F0BF808A4B90
:1032300004F00F0203EBC203D3E90023DDE90E0122
:1032400002F0BAFE241106460F4600F02A81834D93
:103250004FF00208E20709D530463946D5E9002388
:1032600002F0AAFE08F1010806460F46641005F1B7
:103270000805EFD176E5079930220A70049A15F80F
:10328000014C01320492FFF7D0BB7168484600F050
:1032900047FC33699A1C0546920006F10C010C307C
:1032A000FDF7BEFA29460122484600F035FE05909A
:1032B00070E6392BCDF814B0D04600F0A38003F1AE
:1032C000010AB34687F800A07D1C059E08949FE480
:1032D0005A46D046B3469A4616467DE45E4908F102
:1032E000FF3A01EBCA0122462B46D1E9000102F068
:1032F00063FECDE912013946304603F0F7F8044683
:1033000002F0F4FD02460B463046394602F0A0FCBE
:10331000079A3034B8F1010F06460F46147002F1D7
:1033200001051ED0079B03EB080BA84600224C4B5F
:103330003046394602F040FE0F46064603F0D6F806
:10334000044602F0D3FD303402460B46304639467F
:1033500002F07EFC08F8014BC34506460F46E5D156
:10336000554400223F4BDDE9120102F073FC324666
:103370003B4603F093F800284CD0119B049315F8BA
:10338000014CFFF746BB4FF000084646A8E6059BF8
:10339000069A9D1A0023FFF772BB0027CAE6149B0A
:1033A0000A9F059DC3F13603FFF769BBDDE90E6790
:1033B0004FF00208D6E40894A0E5069B002B3FF4EA
:1033C000BFAE0D9B002B7FF7E3AE0022244B3046AF
:1033D000394602F0F1FD06460F4608F1010002F001
:1033E00085FD32463B4602F0E7FD0022184B02F015
:1033F00031FC049ADDF83480013A0446A1F150759D
:103400001192D0E43922B3460894059E3A707D1C8F
:10341000FFF7F0BBDDE912230020124902F018FC8F
:1034200032463B4603F058F808B9B1E6154615F8A0
:10343000013C302B05F1FF32F8D030E5119B0493AD
:10344000FFF7E7BABAF1000F7FF47AAD61E600BF8B
:1034500000001C400000144000A50008F0A5000872
:10346000000024400000E03F392BCDF814B0D046D6
:10347000DDF808B09A46C5D0BBF1000F3FF7BCAEEF
:10348000BCE67FF4BBAE1AF0010F3FF4B7AEAFE677
:103490004FF00008464631E5209B022B21DC0D9BB6
:1034A00004E64FF002085DE4209B022B19DC0D9B23
:1034B00063E50024C9F844402146484600F030FB4B
:1034C0004FF0FF3306930D93012307902194C9F821
:1034D00040000993FFF7E9B93FF43DABC0F13C0070
:1034E00022E50D9B0693E9E50125FFF7A8B900BF8A
:1034F000014B1868704700BF900100200020704702
:10350000014900F05FBA00BF255500082DE9F04FD2
:10351000354B4568C3630024074600F53B7204231E
:103520000321C0F8E412C0F8E822C0F8E04283B0FA
:103530002C606C60AC606C66EC812C616C61AC6181
:10354000AB81214605F15C000822FDF703FABE6855
:10355000DFF898B0DFF898A0DFF89890DFF898804F
:10356000C5F820B001230922C5F824A0C5F8289089
:10357000C5F82C80ED612146F381B28106F15C0033
:1035800034607460B460746634617461B46108223C
:103590000193FDF7DFF9FD68F66112200222C6F8FB
:1035A00020B0C6F824A0C6F82890C6F82C80214682
:1035B000A881EA812C606C60AC606C662C616C61E7
:1035C000AC6105F15C000822FDF7C4F9019BED61D7
:1035D000C5F820B0C5F824A0C5F82890C5F82C80FF
:1035E000BB6303B0BDE8F08F013500086D440008EF
:1035F00095440008CD440008ED44000800207047C1
:1036000070B568234D1E03FB05F50E4605F17401E8
:10361000FCF750FE044640B100210C30666005F115
:1036200068022160A060FDF795F9204670BD00BFDB
:10363000204B70B51D68AB6B064613B92846FFF7E3
:1036400065FF05F538756B68AC68013B05D521E071
:10365000013B5A1C04F168041CD0B4F90C20002A68
:10366000F6D1002501234FF6FF72E281A381656642
:103670002560A560656025616561A5612946082210
:1036800004F15C00FDF766F9256365636564A56474
:10369000204670BD2B680BB11D46D4E7042130468F
:1036A000FFF7AEFF286008B10546CCE70C23336076
:1036B00070BD00BFCCA40008024B0349186800F09D
:1036C00081B900BFCCA4000825550008836B03B165
:1036D00070471BE7704700BF704700BF704700BFCF
:1036E000704700BF024B0349186800F045B900BF9E
:1036F00090010020FD350008024B0349186800F0D6
:103700003BB900BF90010020FD340008F8B5234FFD
:103710000C460646FDF76CF9BB685D6825F00305AD
:10372000291B01F6EF7121F47F6121F00F01A1F552
:103730008054B4F5805F07DB00213046FDF75CF96B
:10374000BB682B44984204D03046FDF753F9002063
:10375000F8BD61423046FDF74FF901300DD0104BF6
:10376000BA6819682D1B45F001053046091B5560E4
:103770001960FDF73FF90120F8BD00213046FDF743
:103780003BF9BA68831A0F2BDEDD064C0449246826
:1037900043F00103001B53600860D5E7C00500201B
:1037A000080F0020C8090020002945D02DE9F0416C
:1037B0000D468046FDF71CF955F8047C6A4927F050
:1037C0000103A5F10804E2188E685068B24220F0A7
:1037D000030062D0FE0750600BD455F8087CE41B50
:1037E00001F1080EA56875453B446FD0E768EF60AE
:1037F000BD6015186D68ED0742D543F001026260A7
:10380000E350B3F5007F18D2DB085A1C4D6851F81D
:103810003270A76001209B1000FA03F301EBC20095
:103820001D430838E0604D6041F83240FC6040467E
:10383000BDE8F041FDF7DEB870475A0A042A53D8B4
:103840009A0902F139077F0002F1380501EB870080
:1038500051F827204449083890424DD0516821F052
:1038600003018B4202D292689042F7D1D068E060A7
:10387000A2608460D4604046BDE8F041FDF7BAB86C
:1038800095683A4FBD4203443FD0D068E86043F0AA
:10389000010285606260E350B3E7FF07034407D489
:1038A00055F8082CA41A1344A068E268C26090601E
:1038B0002F4A126843F00100934260608C60B6D3D7
:1038C0002C4B40461968FFF721FFB0E711184968F3
:1038D000C90744D49168D268CA60034443F0010028
:1038E00091606060E350A2E7142A17D802F15C07E8
:1038F0007F0002F15B05A9E7AA104B68012505FAD4
:1039000002F213434B600246B1E743F001024C61FF
:103910000C61E560A5606260E35088E7542A06D830
:103920001A0B02F16F077F0002F16E058EE7B2F508
:10393000AA7F06D8DA0B02F178077F0002F177053B
:1039400084E740F25450824206D89A0C02F17D0777
:103950007F0002F17C0579E7FE277E2576E743F0BC
:1039600001026260E35062E7C0050020C805002044
:10397000CC090020040F00202DE9F04110F5387724
:103980001BD0884600267D68BC68013D0FD4A38902
:10399000012B05F1FF3506D9B4F90E30013320466D
:1039A00001D0C04706436B1C04F16804EFD13F68A7
:1039B000002FE8D13046BDE8F0813E463046BDE8F4
:1039C000F08100BF2DE9F84310F538771FD0884605
:1039D00006464FF000097D68BC68013D11D4A389FB
:1039E000012B05F1FF3508D9B4F90E30013321461A
:1039F000304602D0C04749EA00096B1C04F1680454
:103A0000EDD13F68002FE6D14846BDE8F883B946BE
:103A10004846BDE8F88300BFB2B110B50B49104667
:103A2000144600F071FD08B9094810BD0849204648
:103A300000F06AFD0028F7D02046064900F064FD3A
:103A40000028F1D0002010BD01487047C4A800082C
:103A500068A80008A0A7000800487047D009002007
:103A6000014B186A704700BFD0090020004870471A
:103A7000F40900200020704700487047140A002015
:103A8000024B0A4601461868FFF7C6BF90010020A6
:103A900000487047140A0020830770B4C9B23BD0B5
:103AA000531E0AB302788A421FD0421C05E0DBB1E4
:103AB00004788C4203F1FF3317D012F0030F104645
:103AC00002F10102F3D1032B11D83BB302788A42F1
:103AD0000BD00344421C02E004788C4205D0934290
:103AE000104602F10102F7D1002070BC704741EA94
:103AF0000126044646EA064620460434026872401F
:103B0000A2F1013525EA020212F0803FDED1043B2A
:103B1000032B2046F0D8D8E71346D4E71846E4E74D
:103B2000C36C70B505460C464BB153F8240080B108
:103B3000026843F8242000230361C36070BD212282
:103B4000042101F0ADFCE86403460028EDD100201B
:103B500070BD012101FA04F6721D2846920001F0A1
:103B60009FFC0028F3D044608660E4E731B1C36C69
:103B70004A6853F82200086043F82210704700BFDB
:103B8000F0B50C6983B00D46064601F1140E00270E
:103B9000DEF8000081B202FB01310B0C000C02FBCD
:103BA000003389B2013701EB0341BC424EF8041BDC
:103BB0004FEA1343ECDC3BB1AA68944207DA05EB09
:103BC0008402013453612C61284603B0F0BD69685A
:103BD000019301313046FFF7A3FF2A69023205F154
:103BE0000C01074692000C30FCF71AFEF26C696873
:103BF000019B52F82100286042F821503D46DEE743
:103C00002DE9F843234C089D1F46083384FB034EDF
:103C1000DB17C3EB6E0EBEF1010F06460C46904655
:103C200035DD012300215B009E4501F10101FADC35
:103C30003046FFF775FF0123B8F1090F45610361B5
:103C400021DD04F109094D46444415F8013B0146C4
:103C5000303B0A223046FFF793FFA542F5D109EB2E
:103C60000804083C47450CDDC8EB0707274414F857
:103C7000013B0146303B0A223046FFF781FFA74255
:103C8000F5D1BDE8F8830A344FF00908EAE70021CE
:103C9000CEE700BF398EE338030C1B04B3B9000430
:103CA000102310F07F4F04BF0002083310F0704F54
:103CB00004BF0001043310F0404F04BF8000023302
:103CC000002807DB420003D4202070470023E8E7E8
:103CD000581C704718467047036813F0070207D056
:103CE000D90720D49A0720D49B080360022070478C
:103CF00099B209B91B0C102213F0FF0F04BF1B0A65
:103D00000832190704BF1B090432990704BF9B0836
:103D10000232D90704D45B0801D120207047013258
:103D2000036010467047002070475B080360012065
:103D3000704700BF10B50C460121FFF7F1FE0122CC
:103D40004461026110BD00BF2DE9F04F0D69176994
:103D5000BD4283B00C46164604DA2A4634463D4638
:103D60000E461746A368616805EB07089845C8BF6B
:103D70000131FFF7D5FE00F1140C0CEB8809CC459E
:103D8000009005D26346002143F8041B9945FBD8F7
:103D900006F1140202EB870A04F11403524503EB07
:103DA000850E54D2CDF80490994652F8043B1FFA80
:103DB00083FBBBF1000F20D000204F46664605462E
:103DC00000E01E4657F8044B3068A1B283B20BFBEB
:103DD0000131240C000C4B190BFB040000EB1340C9
:103DE00099B2334641EA0041BE454FEA104543F8D7
:103DF000041BE6D8756052F8043C5FEA134B20D0F0
:103E0000DCF80030674618464D46002100E0374692
:103E10002C88000C0BFB040001449CB23E4644EA93
:103E2000014346F8043B786855F8044B83B2240CF0
:103E30000BFB043404EB1143AE454FEA1341E6D8C3
:103E40007B6092450CF1040CAFD8DDF80490B8F11A
:103E5000000F0BDD59F8043CA9F104091BB105E082
:103E600059F8043D13B9B8F10108F9D10098C0F828
:103E7000108003B0BDE8F08F12F003032DE9F0418C
:103E8000144607462ED10E46A4101CD0BD6C95B327
:103E9000E3074FF0000806D4641014D02868A8B1D6
:103EA0000546E307F8D52A4631463846FFF74CFF6A
:103EB000B6B17268FB6C641053F82210316043F89D
:103EC00022600646EAD13046BDE8F0812A462946FE
:103ED0003846FFF739FF2860C0F800800546E0E764
:103EE0000646D9E75A1E0B4D002355F82220FFF74E
:103EF00047FE0646C8E701213846FFF711FE40F2AB
:103F0000712101220023416102610546B86403600A
:103F1000BEE700BFF0A400082DE9F04791460A690A
:103F20008B684FEA691404EB020808F101059D4211
:103F30000E468246496804DD5B009D4201F10101A5
:103F4000FADC5046FFF7ECFD002C00F1140238DDDE
:103F500002EB8403002142F8041B9342FBD1346935
:103F600006F1140119F01F0901EB840E21D0C9F1EB
:103F7000200200240F6807FA09FC4CEA04049C465E
:103F800043F8044B51F8044B8E4524FA02F4F1D85F
:103F9000CCF804400CB108F10205DAF84C30726834
:103FA000013D53F822100561316043F82260BDE8FD
:103FB000F087043B51F8042B43F8042F8E45F9D8C1
:103FC000EBE71346CBE700BF02690B69D21A12D1A7
:103FD0009B0014301431194410B4034401E098429A
:103FE0000BD253F8044D51F8042D9442F7D007D367
:103FF000012010BC704710467047002010BC70476D
:104000004FF0FF30F5E700BF2DE9F8430B690F468D
:1040100011695B1A002B904617D1890007F1140231
:1040200008F114055318294401E09A425ED253F86E
:10403000046D51F8044DA642F7D060D23B461446B9
:1040400047464FF00109984606E05DDB07F114058D
:1040500002F114044FF000097968FFF761FDD8F808
:1040600010303E69C0F80C9004EB830CA64605EBBB
:10407000860700F1140400235EF8041B55F8048B36
:104080008AB213FA88F3090C9A1AC1EB184303EBAE
:10409000224392B242EA0342F44544F8042B4FEA29
:1040A0002343E9D8AF4217D9A446294651F804EB77
:1040B00013FA8EF2131403EB1E4392B242EA034248
:1040C0008F424CF8042B4FEA2343EFD8ED433D4495
:1040D00025F0030504352C44043C22B954F8043D72
:1040E000013E002BFAD00661BDE8F8830021FFF7FE
:1040F00017FD0122002302614361BDE8F8832C46CD
:104100004FF000091546A7E73B4607F1140408F1F4
:10411000140547464FF0010998469DE70F4B0B40A9
:10412000A3F15073002B02DD0020194670475B425B
:104130001B15132B0BDD143B1E2BDDBFC3F11F031F
:10414000012202FA03F301230021184670474FF4BD
:104150000022002042FA03F1704700BF0000F07F08
:104160002DE9F041066900F1140808EB860656F8BF
:10417000047C3846FFF790FDC0F120030A280B604D
:10418000A6F104031ADC984538BF56F8083CC0F184
:104190000B0227FA02F138BF23FA02F200F11503ED
:1041A00041F07F5528BF002207FA03F345F440157C
:1041B00043EA020420462946BDE8F081984520D212
:1041C000B0F10B0256F8081C1ED007FA02F040F0BE
:1041D0007F50C2F12007A6F1080340F4401021FAF5
:1041E00007FE984540EA0E0520D256F80C3C01FA2D
:1041F00002F023FA07F20243144620462946BDE89E
:10420000F0810B3809D1014647F07F550C4645F443
:10421000401520462946BDE8F08107FA00F040F03D
:104220007F55002245F440151446E6E701FA02F2F4
:104230001446E2E72DE9F04182B001211C46C3F3A8
:104240000A571546089EFFF76BFCC4F3130480461B
:104250000FB144F4801401941DB302A840F8085D26
:10426000FFF73AFD002834D19DE80C00C8F814206F
:10427000002B0CBF01210221C8F81830C8F810101B
:10428000DFB908EB8103A0F2324030601869FFF714
:1042900003FD099BC0EB41101860404602B0BDE829
:1042A000F08101A8FFF718FD019BC8F81430012127
:1042B0002030C8F81010002FE3D0099BA7F2334735
:1042C0000744C0F1350037601860404602B0BDE8D1
:1042D000F0819DE80C00C0F1200103FA01F10A43CE
:1042E000C3400193C8F81420C2E700BF2DE9F04392
:1042F00083B00E4669460746FFF732FF04460D4677
:10430000304601A9FFF72CFF89469DE80A003A696B
:104310003669C91A961B01EB4613002B80460BDD4C
:1043200005EB03510D4642464B462046294601F017
:104330006DFF03B0BDE8F083A9EB0357B946F2E780
:10434000172810B5044608DD074900200022074B56
:1043500001F032FE013CF9D110BD054B03EBC00466
:10436000D4E9040110BD00BF0000F03F000024406C
:10437000F0A4000870B4146902F1140301394E115D
:1043800003EB84040136A34200EB86060CD2011F26
:1043900053F8045B41F8045F9C42F9D8A31A153B1B
:1043A00023F0030304331844864204D9002340F861
:1043B000043B8642FBD870BC704700BF03694A11BA
:1043C000934210B400F114040FDA04EB83039C420F
:1043D0001FD253F8040C043B18B114E053F8042D19
:1043E0008AB99C42FAD310BC70470FDD11F01F014F
:1043F0000CD054F8220020FA01F303FA01F18842AC
:1044000004EB8203E3D0012010BC704704EB82036D
:10441000DDE70020E7E700BF31F0004310B407D02C
:10442000104AA1F58014944206D8042010BC7047AD
:1044300010B9022010BC704701F1FF41094A01F593
:10444000E0019142F1D9B3F5801F01D20320EDE7DD
:10445000054A934201D00020E8E7B0FA80F0400915
:10446000E4E700BFFFFFDF7F0000F07F10B50C46E0
:10447000B1F90E1001F0E6F9002803DB236D0344C7
:10448000236510BDA38923F48053A38110BD00BF11
:10449000002070472DE9F04116468A891F46D30552
:1044A0000C46054606D500220223B1F90E1001F094
:1044B0004FF9A289B4F90E1022F48052A2813B4632
:1044C00032462846BDE8F04100F0D4BF10B50C4696
:1044D000B1F90E1001F03CF9A389421C0EBF23F480
:1044E000805343F480532065A38110BDB1F90E10B1
:1044F00001F006B80000000000000000000000000D
:10450000A2EB0300704700BF02780B78012A28BF96
:104510009A42F5D16DE9044540EA0104CDE902670C
:104520006FF0000C4FEA447212B380EA010414F0F9
:10453000070F6AD100F0070420F0070004F003051C
:1045400021F007014FEAC505F0E8042314F0040F39
:10455000F1E804670CFA05F462EA040266EA04066C
:104560000AD063EA0403624667EA0407664603E08A
:10457000F0E80423F1E8046782FA4CF582EA0604C5
:10458000A4FA8CF46CBB83FA4CF583EA0705A5FA10
:104590008CF595B950E9022351E9026782FA4CF58E
:1045A00082EA0604A4FA8CF483FA4CF583EA070540
:1045B000A5FA8CF52543DBD09CB92DBAB5FA85F464
:1045C00024F0070427FA04F1DDE9026723FA04F373
:1045D00003F0FF0001F0FF01FDE80445A0EB01003E
:1045E000704724BAB4FA84F424F0070426FA04F1DC
:1045F000DDE9026722FA04F202F0FF0001F0FF0198
:10460000FDE80445A0EB0100704714F0030F3CD116
:1046100010F0030428D150F8082B51F8083B82FA17
:104620004CF582EA0305A5FA8CF55DB950F8042C27
:1046300051F8043C82FA4CF582EA0305A5FA8CF5A0
:10464000002DE8D02DBAB5FA85F424F0070423FA3A
:1046500004F122FA04F202F0FF0001F0FF01FDE88C
:104660000445A0EB010070474FEAC40420F00300AA
:1046700050F8082B21F0030151F8083B0CFA04F420
:1046800062EA040263EA0403C9E710F003041AD0E3
:10469000A1EB040120F00300E40750F8042B06D03E
:1046A0000FD28B785FFAA2F4E41A06D12BB1CB7843
:1046B0005FFAB2F4E41A00D11BB920465DF8104B42
:1046C000704701F1040150F8042BCC0721F00301DD
:1046D00051F8043B48D824D222F07F4482FA4CF5AA
:1046E00094EA1325A5FA8CF50AD165B951F8043B73
:1046F00084EA0204B4EB036F0ED150F8042BEBE70D
:104700004FEA132355E035F07F454DD10878FDE899
:104710000445C0F1000070474FEA126203F0FF0346
:1047200047E002EA1C4482FA4CF594EA1345A5FAE4
:104730008CF50AD165B951F8043B84EA0204B4EB64
:10474000034F0CD150F8042BEBE74FEA134330E052
:1047500015EA1C4528D10B884FEA124229E04FEA9E
:10476000124203EA1C4324E002F0FF0482FA4CF5F3
:1047700094EA1365A5FA8CF50AD165B951F8043BA2
:1047800084EA0204B4EB032F09D150F8042BEBE7C1
:104790004FEA13630DE015F0FF0F05D10B684FEAE8
:1047A000122223F07F4304E04FF00000FDE80445AF
:1047B000704712BA1BBA82FA4CF482EA0304A4FAD4
:1047C0008CF5B5FA85F402FA04F203FA04F34FEA21
:1047D0001260FDE80445A0EB1360704720F0030170
:1047E00010F00300C0F1000051F8043B00F1040C8C
:1047F0004FEACC0C6FF000021CBF22FA0CF21343FC
:104800004FF0010C4CEA0C2C4CEA0C4CA3EB0C02C4
:1048100022EA030212EACC1204BF51F8043B04302E
:10482000F4D0C2F1000102EA0102B2FA82F2C2F14E
:104830001F0200EBD20070472DE9F04F936883B060
:104840009046002B72D083464FF000091668086826
:104850008B680D464C46002C45D09C421F469A461C
:1048600046D3AB8913F4906F2DD06F69296907EB9C
:104870004707C1EB000A07EBD777601C7F10504455
:10488000B8423A4684BF07463A465B0533D51146DF
:104890005846FBF70FFD002837D052462969019092
:1048A000FBF7BEFFAA89019B22F4906242F08002CE
:1048B000AA81CAEB070203EB0A006F612B61286033
:1048C000AA602746A2465246494600F057FFD8F84C
:1048D0000820AB682868DB1B5044141BAB602860C1
:1048E000C8F8084014B3D6F8009074680836B2E7E8
:1048F0002746A246E7E7584600F0BAFF03460028DD
:10490000D7D129695846FEF74FFF0C23CBF800306A
:10491000AB89002243F040034FF0FF30AB81C8F871
:104920000820C8F8042003B0BDE8F08F0020C8F8C4
:10493000040003B0BDE8F08F2DE9F04F91468A895D
:10494000ABB08A4611060693049004D5DAF810300D
:10495000002B00F02E85002303930F930E93994EA6
:104960001AAB0D939846574699F800304C46EBB178
:10497000252B02D11AE0252B03D014F8013F002B80
:10498000F9D1C9EB04058DB10E9B0F9AC8F80090C0
:1049900001332A44072BC8F804500F920E9300F3FA
:1049A000D18308F10808039B2B4403932378002B41
:1049B00000F0DF8400214FF000034FF0FF3B04F1D3
:1049C00001098DF82F3008460C4600915D4699F894
:1049D000002009F10109A2F12003582B00F287827F
:1049E000DFE813F07F02850285025302850285020B
:1049F00085028502850285025E009A0085026800B4
:104A00009D0085023601280128012801280128017E
:104A100028012801280128018502850285028502D6
:104A2000850285028502850285028502F4008502E1
:104A3000850285028502850285028502850285023E
:104A40008502B800850285028502850285021B0267
:104A500085028502EF0185028502850285028502B5
:104A6000850285028502850285028F018701850204
:104A7000850285028201870185028502590085022F
:104A800042013B016D00590085025F028502580218
:104A9000850285025501009B43F01003009396E7C1
:104AA000069A14681346002C03F1040380F2E08395
:104AB00064420693009B43F00403009387E7782346
:104AC0008DF831300098069B059430224FF000019C
:104AD000002D8DF82F108DF83020AB4603F1040225
:104AE00040F002011B68C0F22F8420F0800141F0E9
:104AF000020100910692002B00F0C783324800218A
:104B00001AAD03F00F021B09825C05F8012DF8D1E4
:104B10001AAB5B1B029383E001212B2057E799F826
:104B200000202A2A09F1010900F07684A2F130035D
:104B3000092B4FF000053FF64EAF19F8012B05EB9E
:104B4000850503EB4505A2F13003092BF5D945EAAC
:104B5000E57540E70594AB46002940F08084009B52
:104B600043F010030093009911F0100200F030831D
:104B70004FF000038DF82F30069BBBF1000F03F1BF
:104B800004021B68C0F2D48321F0800100910692D8
:104B9000002B00F0998300211AAD03F00702303298
:104BA000DB0805F8012DF8D1009BD807B0D5302AD5
:104BB000AED030226B1E05F8012C1AAAD21A02922E
:104BC0001D462DE018A6000890A800080594AB46E5
:104BD000002940F02E84009B43F010030093009BBB
:104BE000DA0640F11883069A13680432002B069205
:104BF000C0F21F83BBF1000F9DF82F10C0F22B8372
:104C0000009A22F080020092002B40F02881BBF134
:104C1000000F40F07D834FF0000BCDF808B01AADC7
:104C2000029B5B45B8BF5B46019300297BD00133F3
:104C3000019378E0A2F13003002419F8012B04EB72
:104C4000840403EB4404A2F13003092BF5D9C2E636
:104C5000009B43F080030093B9E60594AB4600291E
:104C600081D08DF82F007EE7002940F0EC83009B77
:104C7000DB0600F11083009B5D0640F10C83069A71
:104C8000136804320692BDF80C201A806CE6059475
:104C9000AB46002940F0DA83009BB948DC0640F1BE
:104CA0009A800699009C0B680431069114F001016A
:104CB00000F0A080002B00F02D8330218DF8301003
:104CC00000998DF83120BBF1000F4FF000028DF8F4
:104CD0002F2041F00202C0F2828321F0800242F0D4
:104CE0000202009200210BE7009B43F04003009377
:104CF0006DE60594AB4600293FF471AF8DF82F00A7
:104D00006DE7069A059413688DF840304FF0000166
:104D100013468DF82F10043301210191069302915F
:104D200010AD4FF0000B009B13F00203079302D06D
:104D3000019B02330193009B13F08403089340F01E
:104D4000E880059B019A9C1A002C40F3E2808D4B71
:104D50000F990E9A0993102C26DD43464FF0100A46
:104D6000A046049C06E0A8F11008B8F1100F03F16A
:104D7000080317DD01321031072A0F910E9283E8E4
:104D80004004F0DD0DAA39462046FFF755FD002806
:104D900040F08481A8F11008B8F1100F0F990E9A15
:104DA0001AABE7DC44469846531C099A0E932144FB
:104DB000072B0F9188E8140000F3208208F10808FF
:104DC000A9E00594AB46002940F04683009B6E485D
:104DD000DC063FF566AF0699009B009C13F0400F80
:104DE0000B4614BF0B881B680431069114F00101B7
:104DF0007FF460AFBBF1000F8DF82F10C0F2A782D7
:104E000024F080020092002B7FF47AAEBBF1000FF9
:104E100000F02C8200210B4672E60594AB46002977
:104E200040F02183009B43F010030093009911F0A0
:104E3000100200F0B5814FF000038DF82F30069B73
:104E4000BBF1000F03F104021B68C0F2778221F06E
:104E5000800100910692002B00F055820021092B61
:104E600040F2FC811AAD494AA2FB0302D20802EBD0
:104E70008200A3EB4003303305F8013D1346002ABE
:104E8000F1D11AAB5B1B0293CAE6009B43F001030E
:104E900000939CE50594AB460029C7D08DF82F0000
:104EA000C4E7069A0594AB4615684FF000038DF8E9
:104EB0002F30141D002D00F07182BBF1000FC0F2E5
:104EC00063825A4600212846FEF7E6FD002800F0DE
:104ED0009C82431B029306949DF82F104FF0000B09
:104EE0009EE600287FF473AD012120206FE5059434
:104EF000002940F0AE82002A00F03B8201238DF8A9
:104F000040204FF0000201938DF82F20029310AD46
:104F100007E70F990E9B9DF82F206AB101330131ED
:104F20000DF12F000122072B0F910E9388E8050049
:104F300000F31E8108F10808079A62B101330231BB
:104F40000CA80222072B0F910E9388E8050000F3AE
:104F50001B8108F10808089A802A00F0AC80029AA8
:104F6000C2EB0B04002C3FDD102CDFF824A02EDD5B
:104F700042464FF0100BA8465546DDF810A00EE053
:104F800090A8000818A600087CA80008CDCCCCCCBE
:104F900028A60008103C102C02F1080214DD013391
:104FA0001031072B0F910E9382E82008F2DD0DAA35
:104FB00039465046FFF740FC00286FD1103C102CBA
:104FC0000F990E9B1AAAEADCAA4645469046013381
:104FD0002144072B0F910E93C8F800A0C8F8044095
:104FE00000F3BA8008F108080298C8F800500133AD
:104FF0000144072B0F910E93C8F8040000F397802B
:1050000008F10808009B5A0733D5059B019A9C1AA2
:10501000002C2EDDB04A0E9B0992102C1FDD1025AE
:10502000DDF810A004E0103C102C08F1080816DD93
:1050300001331031072B0F910E93C8F80060C8F8A8
:105040000450F0DD0DAA39465046FFF7F5FB28BBAA
:10505000103C102C0F990E9B0DF16808E8DC013311
:10506000099A0E932144072B0F9188E8140000F34E
:105070000281039B059A01988242ACBF9B181B18C2
:10508000039321B900230E930DF168086CE40DAA77
:1050900039460498FFF7D0FB0028F3D0BA46BAF897
:1050A0000C3013F0400F039B18BF4FF0FF3318462E
:1050B0002BB0BDE8F08F059A0198141A002C7FF7E9
:1050C0004EAF102CDFF818A223DD4246A846554605
:1050D000DDF810A004E0103C102C02F1080215DDF0
:1050E000013310311020072B0F910E931560506083
:1050F000F1DD0DAA39465046FFF79EFB0028CDD1C1
:10510000103C102C0F990E9B1AAAE9DCAA464546C2
:10511000904601332144072B0F910E93C8F800A04D
:10512000C8F8044000F3188108F1080817E70DAA31
:1051300039460498FFF780FB0028AFD10F990DF195
:1051400068085FE70DAA39460498FFF775FB002849
:10515000A4D10DF1680826E40DAA39460498FFF79A
:105160006BFB00289AD10F990E9B0DF168083BE765
:105170000DAA39460498FFF75FFB00288ED10F99DE
:105180000E9B0DF16808D7E60DAA39460498FFF783
:1051900053FB002882D10F990E9B0DF16808DAE6C7
:1051A000009810F0400100F09D80069B8DF82F20A4
:1051B000BBF1000F03F104011B88C0F20A8120F04B
:1051C000800000900691002B00F09D80114646E67D
:1051D000009810F0400166D0069B8DF82F20BBF19F
:1051E000000F03F104011B88C0F2F18020F0800061
:1051F00000900691002B67D01146CDE40DAA3946E8
:105200000498FFF719FB00287FF448AF0F990E9B15
:105210000DF168087FE6069A009B13F0400F1346D5
:1052200014BFB2F900301B680432002B0692BFF69F
:10523000E1AC2D21BBF1000FC3F100038DF82F105D
:10524000FFF60DAE009A092B22F0800200923FF685
:1052500009AE03E00692002B7FF401AE2AAD303395
:1052600005F8413D1AAB5B1B0293D9E45946D2E4E1
:105270000693FFF7ACBB0DAA39460498FFF7DCFA9A
:1052800000287FF40BAF0F99F3E61448BBF1000F31
:105290007FF4C0ADEAE7069A136804320692039AD7
:1052A0001A60FFF761BB069B8DF82F10BBF1000F52
:1052B00003F104021B683BDB0098069220F080009B
:1052C0000090002B7FF468ACBBF1000F00F08D80E4
:1052D00000210B4660E400BF18A6000890A8000853
:1052E00028A60008069B8DF82F10BBF1000F03F1D4
:1052F00004021B68AEDB0098069220F0800000904C
:10530000002B7FF4ACAD1946BBF1000F3FF483AC2A
:105310000023A3E7BBF1000F8DF82F3061DB009B6A
:1053200023F080030093BBF1000F7FF473AD9DE782
:105330000692002B0CBF194600212DE40692002195
:10534000002B7FF48CAD89E7484806920091002B32
:1053500047D00021FFF7D4BB0DAA39460498FFF7C8
:105360006BFA00287FF49AAE0F990E9B0DF1680836
:10537000F5E50F9BBA46002B3FF491AE04980DAAB9
:105380003946FFF759FA8AE628460694FFF726FAC7
:105390004FF0000B02909DF82F1041E45B46062B66
:1053A00028BF0623029323EAE37306940193304D4A
:1053B000B7E44021FAF77EFFCAF80000CAF81000EF
:1053C00000283AD04023CAF81430FFF7C4BA069137
:1053D000AFE706911146002B7FF441AD3EE7009206
:1053E000B7E719460023FFF78BBB009BDB07594645
:1053F00007D52AAD302305F8413D1AAB5B1B02935C
:105400000EE4CDF808B01AAD0AE4CDF808B09DF866
:105410002F100694834603E4069A15681346002D60
:1054200003F10403BFF624AF06934FF0FF35FFF7F7
:10543000CEBA8DF82F00FFF7CEBB049A0C23136071
:105440004FF0FF3034E68DF82F0010E48DF82F0078
:1054500022E48DF82F004EE58DF82F00B6E48DF88C
:105460002F00FFF77CBB8DF82F00DBE490A800082D
:10547000A4A8000870B50D46084C114606461A4609
:10548000284600232360FCF7B9FE431C00D070BD02
:105490002368002BFBD0336070BD00BFA014002038
:1054A00010B502FB01F1FAF705FF0446D8B150F838
:1054B000042C22F00302043A242A18D8132A14D9FF
:1054C00000231B2A0360436016D9242A8360C3602B
:1054D00011BF00F110020361436100F118020023C3
:1054E000136053609360204610BD0246F7E7002129
:1054F000FBF730FA204610BD00F10802EFE700BFCD
:1055000038B5074C0023054608462360FCF730FFFA
:10551000431C00D038BD2368002BFBD02B6038BD66
:10552000A014002000293DD070B505460C4608B1F6
:10553000836B7BB3B4F90C300BB9002070BD2146EE
:10554000284600F039F8E36A064633B1E169284697
:1055500098470028B8BF4FF0FF36A3891B061CD41C
:10556000216B41B104F14003994202D02846FEF775
:105570001BF900232363616C21B12846FEF714F95F
:1055800000236364FEF7A6F80023A381FEF7A4F8C6
:10559000304670BDFEF79AF8CCE721692846FEF741
:1055A00003F9DDE700207047024B01461868FFF75A
:1055B000B9BF00BF900100208B899AB22DE9F0415C
:1055C0000D46110780463CD46A6843F40063002A04
:1055D000AB8173DDAE6A002E4BD09BB203F48052D8
:1055E000002192B2D8F80040C8F80010002A69D013
:1055F0002A6D5F0705D569682B6B521A0BB1EB6BEF
:10560000D21A0023E9694046B047461C3CD0AB891A
:105610002A692A6023F400639BB20022AB81DB0479
:105620006A6049D4296BC8F8004011B305F1400302
:10563000994202D04046FEF7B7F800202863BDE843
:10564000F0812E69AEB12C682E6090070CBF6B699B
:105650000023A41BAB600AE0234632466F6AE96967
:105660004046B8470028A4EB0004064404DD002CA3
:10567000F2DC0020BDE8F081AB8943F04003AB8150
:105680004FF0FF30BDE8F081D8F800201D2AF3D894
:105690001A4BD34003F0010383F00101002BEBD040
:1056A000AB89696023F400639BB229692960D9043E
:1056B000AB81B7D5002AB5D12865B3E7EA6B002ADC
:1056C00088DCD6E70123E9694046B047431C02461F
:1056D00002D0AB89AE6A8CE7D8F80030002BF8D046
:1056E0001D2B01D0162B02D1C8F80040C1E7AB89B1
:1056F00043F04003AB81BDE8F08100BF01004020D2
:1057000010B5044682B008B1836B53B1B1F90C00F7
:1057100008B902B010BD204602B0BDE81040FFF746
:105720004BBF0191FDF7D2FF0199EFE720B1054B87
:1057300001461868FFF7E4BF034B04491868FEF7F9
:1057400041B900BF90010020CCA400080157000817
:1057500070B50D46084C114606461A4628460023E9
:105760002360FCF72FFD431C00D070BD2368002B85
:10577000FBD0336070BD00BFA01400208842F0B59C
:105780000DD98B1898420AD28118002A51D09A1A42
:1057900013F8014D01F8014D9342F9D1F0BD0F2AE4
:1057A00048D941EA00039B0746D100F1100401F1FA
:1057B0001003154653F8106C44F8106C53F80C6C39
:1057C00044F80C6C53F8086C44F8086C103D53F81E
:1057D000046C44F8046C0F2D03F1100304F1100461
:1057E000E8D8A2F1100323F00F0302F00F0E1033DC
:1057F000BEF1030F1944034421D91E1F0D46744600
:10580000043C55F8047B46F8047F032CF8D8AEF12D
:10581000040424F0030404342344214402F003026A
:1058200062B1013B0A4411F8014B03F8014F8A426F
:10583000F9D1F0BD0346F3E70346F2E7F0BD724647
:10584000EEE700BF70B50D46084C114606461A46F5
:10585000284600232360FCF725FC431C00D070BDC4
:105860002368002BFBD0336070BD00BFA014002064
:105870002DE9F04F904683B0002900F0BB800E4622
:10588000814608F10B05FBF7B3F856F8043C162DDA
:1058900023F00304A6F1080742D810210D46A845BD
:1058A00043D88C4278DADFF89CB3DBF8082038194B
:1058B0009042426800F0D18022F0010E8644DEF86A
:1058C00004E01EF0010F7AD0DA0735D5414648468C
:1058D000FAF7F0FC8046E0B156F8043C23F00102F0
:1058E0003A44A0F10801914200F03D81221F242A90
:1058F00000F22A81132A00F2FC8003463246116826
:1059000019605168596092689A6031464846FDF7BF
:105910004BFF4846FBF76EF8404603B0BDE8F08FFA
:1059200025F00705002D2946B9DA0C230020C9F817
:10593000003003B0BDE8F08F56F8083CC3EB070A0F
:10594000DAF8043023F0030323448B42BEDB5746CE
:10595000DAF80C1057F8080F221F242AC16088605B
:1059600000F21381132A40F20E813168CAF8081040
:105970007168CAF80C101B2A00F2268108360AF159
:1059800010023168116071685160B16891601C4605
:10599000DAF804303E465746621B0F2A03F0010333
:1059A00018D823433C447B60636843F00103636081
:1059B0004846FBF71FF8304603B0BDE8F08F22F0F1
:1059C000030222448A421BDBC16880681446C1601E
:1059D0008860E1E779191D4342F001030A447D60C4
:1059E0004B60536843F00103083153604846FDF7AC
:1059F000DBFEDDE7114603B0BDE8F04FFAF75ABC15
:105A0000DB073FF563AF56F8083CC3EB070ADAF84B
:105A1000043023F0030302EB030E8E4594DBC368CE
:105A200082685746D3609A6057F8081FDAF80C303E
:105A3000CB60221F242A996000F29B80132A63D92D
:105A40003368CAF808307368CAF80C301B2A00F2B1
:105A5000A68008360AF1100357E022F00302224420
:105A600005F1100082425CDADB073FF52FAF56F8F4
:105A7000083CC3EB070ADAF8043023F003039A1852
:105A8000904201923FF760AF5746DAF80C3057F872
:105A9000081F221F242ACB60996000F2B780132AC6
:105AA00040F2A8803368CAF808307368CAF80C302E
:105AB0001B2A00F2B08008360AF1100332681A601F
:105AC00072685A60B2689A60019B0AEB05025B1B20
:105AD00043F00103CBF808205360DAF8043003F0F8
:105AE00001031D434846CAF80450FAF783FF3846BD
