:020000040800F2
:100000000000022059030008A1030008A103000812
:10001000A1030008A1030008A103000800000000DC
:10002000000000000000000000000000A103000824
:10003000A103000800000000A10300087D020008E1
:10004000A1030008A1030008A1030008A103000800
:10005000A1030008A1030008A1030008A1030008F0
:10006000A1030008A1030008A1030008A1030008E0
:10007000A1030008A1030008A1030008A1030008D0
:10008000A1030008A1030008A1030008A1030008C0
:10009000A1030008A1030008A1030008A1030008B0
:1000A000A1030008A1030008A1030008A1030008A0
:1000B000A1030008A1030008A1030008A103000890
:1000C000A1030008A1030008A1030008A103000880
:1000D000A1030008A1030008A1030008A103000870
:1000E000A1030008A1030008A1030008A103000860
:1000F000A1030008A1030008A1030008A103000850
:10010000A1030008A1030008A1030008A10300083F
:10011000A1030008A1030008A1030008A10300082F
:10012000A1030008A1030008A1030008A10300081F
:10013000A1030008A1030008A1030008A10300080F
:10014000A1030008A1030008A1030008A1030008FF
:10015000A1030008A1030008A1030008A1030008EF
:10016000A1030008A1030008A1030008A1030008DF
:10017000A1030008A1030008A1030008000000007B
:08018000A1030008A10300081F
:10018800044B05481B1A062B02D9044B03B1184728
:10019800704700BF17000020140000200000000076
:1001A80005490648091A891001EBD171491002D096
:1001B800034B03B1184770471400002014000020B7
:1001C8000000000010B5064C237843B9FFF7D8FFAC
:1001D800044B13B10448AFF300800123237010BD12
:1001E8001400002000000000700B000808B5084B40
:1001F8001BB108490848AFF300800848036813B9E1
:10020800BDE80840CCE7064B002BF9D09847F7E744
:100218000000000018000020700B000814000020E7
:100228000000000070B50F4E0F4D761BB61018BFBA
:10023800002405D0013455F8043B9847A642F9D16B
:100248000A4E0B4D761B00F083FCB61018BF002435
:1002580006D0013455F8043B9847A642F9D170BD41
:1002680070BD00BF700B0008700B0008740B00080D
:10027800700B000880B500AF00F0D4F800F0E4F986
:1002880000BF80BD80B586B000AF00F087F8174A80
:10029800164B1B6B43F008031363144B1B6B03F0E3
:1002A80008033B603B684FF480537B600123BB60CD
:1002B80003233B610023FB603B1D19460C4800F0FB
:1002C800CFF901224FF48051094800F069FB4FF43F
:1002D800FA7000F0BFF800224FF48051044800F093
:1002E8005FFB4FF4FA7000F0B5F8EAE70038024017
:1002F800000C024080B400AF124A124B1B6843F056
:10030800010313600F4B00229A600E4A0D4B1B68C5
:1003180023F0847323F4803313600A4B0A4A5A602B
:10032800084A084B1B6823F480231360054B0022FE
:10033800DA60064B4FF000629A6000BFBD4680BC91
:10034800704700BF003802401030002400ED00E084
:100358000C4D0D4C03E02B682360043504340B4B23
:100368009C42F8D10A4C02E0002323600434094B74
:100378009C42F9D1FFF7BEFFFFF754FFFFF782FF5A
:10038800FEE700BF780B00080000002014000020E2
:100398001400002034000020FEE700BF80B500AF45
:1003A8000E4A0E4B1B6843F4007313600B4A0B4B49
:1003B8001B6843F480631360084A084B1B6843F4C6
:1003C80080731360032000F00BF90F2000F00EF883
:1003D80000F006F80023184680BD00BF003C02402C
:1003E80080B400AF00BFBD4680BC704780B582B006
:1003F80000AF786000F078FB0246094BA3FB0223AC
:100408009B09184600F014F9002279684FF0FF3074
:1004180000F0F2F8002318460837BD4680BD00BF3B
:10042800D34D621080B400AF044B1B680133034AFC
:10043800136000BFBD4680BC704700BF300000207D
:1004480080B400AF024B1B681846BD4680BC70479D
:100458003000002080B584B000AF78600023FB60D6
:10046800FFF7EEFFF86000BFFFF7EAFF0246FB6800
:10047800D21A7B689A42F7D300BF1037BD4680BDB9
:1004880080B485B000AF78607B6803F00703FB6039
:100498000C4BDB68BB60BA684FF6FF031340BB60C8
:1004A800FB681A02BB68134343F0BF6343F400338D
:1004B800BB60044ABB68D36000BF1437BD4680BC2C
:1004C800704700BF00ED00E080B400AF044BDB686C
:1004D80003F4E0631B0A1846BD4680BC704700BFA2
:1004E80000ED00E080B483B000AF03463960FB71D3
:1004F80097F90730002B0BDA0D49FB7903F00F034E
:10050800043B3A68D2B21201D2B20B441A7609E01F
:10051800084997F907303A68D2B21201D2B20B44AF
:1005280083F8002300BF0C37BD4680BC704700BF6E
:1005380000ED00E000E100E080B489B000AFF860B1
:10054800B9607A60FB6803F00703FB61FB69C3F1DC
:100558000703042B28BF0423BB61FB690433062B64
:1005680002D9FB69033B00E000237B610122BB69E0
:1005780002FA03F3013B1A46BB681A407B699A40AA
:1005880001217B6901FA03F3013B19467B680B40A3
:10059800134318462437BD4680BC704780B582B0E7
:1005A80000AF78607B68013BB3F1807F01D3012302
:1005B8000FE00A4A7B68013B53600F214FF0FF3080
:1005C800FFF790FF054B00229A60044B07221A6040
:1005D800002318460837BD4680BD00BF10E000E084
:1005E80080B582B000AF78607868FFF749FF00BF38
:1005F8000837BD4680BD00BF80B586B000AF034652
:10060800B9607A60FB7300237B61FFF75DFF786157
:100618007A68B9687869FFF78FFF024697F90F3053
:1006280011461846FFF75EFF00BF1837BD4680BD6C
:1006380080B582B000AF78607868FFF7AFFF0346F7
:1006480018460837BD4680BD80B500AF00F002F8F7
:1006580000BF80BD80B400AF00BFBD4680BC7047FE
:1006680080B489B000AF7860396000237B610023D3
:100678003B610023BB610023FB616FE10122FB6941
:1006880002FA03F37B613B681A687B6913403B619C
:100698003A697B699A4240F05E813B685B68022B4D
:1006A80003D03B685B68122B23D1FB69DA087B68AF
:1006B800083253F82230BB61FB6903F007039B0043
:1006C8000F2202FA03F3DB43BA691340BB613B68AC
:1006D8001A69FB6903F007039B0002FA03F3BA697E
:1006E8001343BB61FB69DA087B680832B96943F8D0
:1006F80022107B681B68BB61FB695B00032202FA5E
:1007080003F3DB43BA691340BB613B685B6803F0E2
:100718000302FB695B0002FA03F3BA691343BB6186
:100728007B68BA691A603B685B68012B0BD03B6831
:100738005B68022B07D03B685B68112B03D03B68D2
:100748005B68122B30D17B689B68BB61FB695B00DF
:10075800032202FA03F3DB43BA691340BB613B6827
:10076800DA68FB695B0002FA03F3BA691343BB61F9
:100778007B68BA699A607B685B68BB610122FB6928
:1007880002FA03F3DB43BA691340BB613B685B6859
:1007980003F010031A09FB6902FA03F3BA69134359
:1007A800BB617B68BA695A607B68DB68BB61FB69BF
:1007B8005B00032202FA03F3DB43BA691340BB610F
:1007C8003B689A68FB695B0002FA03F3BA69134352
:1007D800BB617B68BA69DA603B685B6803F0805389
:1007E800002B00F0B880624A614B5B6C43F4804395
:1007F80053645F4B5B6C03F48043FB60FB685D4AAA
:10080800FB699B08023352F82330BB61FB6903F094
:1008180003039B000F2202FA03F3DB43BA69134078
:10082800BB617B68544A934231D07B68534A9342F8
:100838002BD07B68524A934225D07B68514A934219
:100848001FD07B68504A934219D07B684F4A934225
:1008580013D07B684E4A93420DD07B684D4A934231
:1008680007D07B684C4A934201D1082310E0092342
:100878000EE007230CE006230AE0052308E0042322
:1008880006E0032304E0022302E0012300E0002342
:10089800FA6902F0030292009340BA691343BB61FC
:1008A8003449FB699B080233BA6941F823203B4B62
:1008B8001B68BB613B69DB43BA691340BB613B689A
:1008C8005B6803F48033002B03D0BA693B69134398
:1008D800BB61324ABB691360304B5B68BB613B69E3
:1008E800DB43BA691340BB613B685B6803F40033C0
:1008F800002B03D0BA693B691343BB61274ABB6924
:100908005360264B9B68BB613B69DB43BA69134064
:10091800BB613B685B6803F48013002B03D0BA69A2
:100928003B691343BB611D4ABB6993601B4BDB6882
:10093800BB613B69DB43BA691340BB613B685B68D9
:1009480003F40013002B03D0BA693B691343BB615E
:10095800124ABB69D360FB690133FB61FB690F2B4A
:100968007FF68CAE00BF2437BD4680BC704700BF01
:1009780000380240003801400000024000040240F4
:1009880000080240000C024000100240001402401F
:1009980000180240001C024000200240003C0140B8
:1009A80080B483B000AF78600B467B8013467B70C1
:1009B8007B78002B03D07A887B689A6103E07B8878
:1009C8001A047B689A6100BF0C37BD4680BC70472B
:1009D80080B491B000AF00237B630023FB63002346
:1009E8003B630023BB633D4B9B6803F00C03042B64
:1009F80006D0082B07D0002B66D1394BBB6366E0C5
:100A0800384BBB6363E0354B5B6803F03F037B63A4
:100A1800324B5B6803F48003002B1CD0314A7B6B9C
:100A2800B2FBF3F22D4B596847F6C0730B4047F6FB
:100A3800C071B962B96A91FAA1F139613969B961CC
:100A4800B969B1FA81F179617969C9B2CB4003FB1F
:100A580002F3FB631BE0224A7B6BB2FBF3F21F4BF2
:100A6800596847F6C0730B4047F6C0713962396A56
:100A780091FAA1F1B960B968F962F96AB1FA81F13C
:100A8800F960F968C9B2CB4003FB02F3FB63134B6F
:100A98005B6803F440334FF44032FA61FA6992FA22
:100AA800A2F23A603A687A627A6AB2FA82F27A60B4
:100AB8007A68D2B2D34001335B003B63FA6B3B6B7D
:100AC800B2FBF3F3BB6302E0054BBB6300BFBB6B38
:100AD80018464437BD4680BC704700BF0038024006
:100AE8000024F40040787D0180B584B000AFFFF7A2
:100AF8006FFF01460F4B9B6803F0F003F022FA608A
:100B0800FA6892FAA2F23A603A68BA60BA68B2FA37
:100B180082F27A607A68D2B2D340074AD35C21FA6B
:100B280003F3064A1360054B1B6818461037BD4689
:100B380080BD00BF00380240480B000800000020BC
:100B4800000000000102030401020304060708096B
:100B5800F8B500BFF8BC08BC9E467047F8B500BFA2
:080B6800F8BC08BC9E46704772
:040B7000F501000883
:040B7400CD010008A7
:100B78000024F4000000000000000000010203044B
:040B8800060708094B
:040000050800035993
:00000001FF
